{
  "_format": "hh-sol-artifact-1",
  "contractName": "FhoxFactory",
  "sourceName": "src/FhoxFactory.sol",
  "abi": [
    {
      "inputs": [
        {
          "internalType": "contract IERC20",
          "name": "usdc_",
          "type": "address"
        },
        {
          "internalType": "contract IIdentityRegistry",
          "name": "identityRegistry_",
          "type": "address"
        }
      ],
      "stateMutability": "nonpayable",
      "type": "constructor"
    },
    {
      "inputs": [],
      "name": "EmptyLegalName",
      "type": "error"
    },
    {
      "inputs": [
        {
          "internalType": "string",
          "name": "legalName",
          "type": "string"
        },
        {
          "internalType": "address",
          "name": "existingManager",
          "type": "address"
        }
      ],
      "name": "NameAlreadyTaken",
      "type": "error"
    },
    {
      "inputs": [],
      "name": "ReentrancyGuardReentrantCall",
      "type": "error"
    },
    {
      "inputs": [],
      "name": "ZeroAddress",
      "type": "error"
    },
    {
      "anonymous": false,
      "inputs": [
        {
          "indexed": true,
          "internalType": "address",
          "name": "manager",
          "type": "address"
        },
        {
          "indexed": true,
          "internalType": "address",
          "name": "principal",
          "type": "address"
        },
        {
          "indexed": true,
          "internalType": "uint256",
          "name": "identityTokenId",
          "type": "uint256"
        },
        {
          "indexed": false,
          "internalType": "string",
          "name": "legalName",
          "type": "string"
        },
        {
          "indexed": false,
          "internalType": "string",
          "name": "jurisdiction",
          "type": "string"
        },
        {
          "indexed": false,
          "internalType": "string",
          "name": "filingId",
          "type": "string"
        },
        {
          "indexed": false,
          "internalType": "bytes32",
          "name": "articlesHash",
          "type": "bytes32"
        },
        {
          "indexed": false,
          "internalType": "bytes32",
          "name": "operatingAgreementHash",
          "type": "bytes32"
        }
      ],
      "name": "FhoxFormed",
      "type": "event"
    },
    {
      "inputs": [
        {
          "components": [
            {
              "internalType": "string",
              "name": "legalName",
              "type": "string"
            },
            {
              "internalType": "string",
              "name": "jurisdiction",
              "type": "string"
            },
            {
              "internalType": "string",
              "name": "filingId",
              "type": "string"
            },
            {
              "internalType": "bytes32",
              "name": "articlesHash",
              "type": "bytes32"
            },
            {
              "internalType": "bytes32",
              "name": "operatingAgreementHash",
              "type": "bytes32"
            },
            {
              "internalType": "uint64",
              "name": "formedAt",
              "type": "uint64"
            }
          ],
          "internalType": "struct IFhoxManager.EntityMetadata",
          "name": "md",
          "type": "tuple"
        },
        {
          "components": [
            {
              "internalType": "uint256",
              "name": "ctHash",
              "type": "uint256"
            },
            {
              "internalType": "uint8",
              "name": "securityZone",
              "type": "uint8"
            },
            {
              "internalType": "uint8",
              "name": "utype",
              "type": "uint8"
            },
            {
              "internalType": "bytes",
              "name": "signature",
              "type": "bytes"
            }
          ],
          "internalType": "struct InEuint128",
          "name": "encDailyCap",
          "type": "tuple"
        },
        {
          "internalType": "bool",
          "name": "hasDailyCap_",
          "type": "bool"
        },
        {
          "internalType": "bool",
          "name": "allowlistOnly_",
          "type": "bool"
        },
        {
          "internalType": "address",
          "name": "principal_",
          "type": "address"
        },
        {
          "internalType": "address",
          "name": "mediator_",
          "type": "address"
        },
        {
          "internalType": "string",
          "name": "identityMetadataURI",
          "type": "string"
        }
      ],
      "name": "form",
      "outputs": [
        {
          "internalType": "address",
          "name": "manager",
          "type": "address"
        },
        {
          "internalType": "uint256",
          "name": "identityTokenId",
          "type": "uint256"
        }
      ],
      "stateMutability": "nonpayable",
      "type": "function"
    },
    {
      "inputs": [],
      "name": "identityRegistry",
      "outputs": [
        {
          "internalType": "contract IIdentityRegistry",
          "name": "",
          "type": "address"
        }
      ],
      "stateMutability": "view",
      "type": "function"
    },
    {
      "inputs": [
        {
          "internalType": "string",
          "name": "legalName",
          "type": "string"
        }
      ],
      "name": "isNameTaken",
      "outputs": [
        {
          "internalType": "bool",
          "name": "taken",
          "type": "bool"
        },
        {
          "internalType": "address",
          "name": "existingManager",
          "type": "address"
        }
      ],
      "stateMutability": "view",
      "type": "function"
    },
    {
      "inputs": [
        {
          "internalType": "bytes32",
          "name": "",
          "type": "bytes32"
        }
      ],
      "name": "managerByName",
      "outputs": [
        {
          "internalType": "address",
          "name": "",
          "type": "address"
        }
      ],
      "stateMutability": "view",
      "type": "function"
    },
    {
      "inputs": [
        {
          "internalType": "address",
          "name": "",
          "type": "address"
        },
        {
          "internalType": "address",
          "name": "",
          "type": "address"
        },
        {
          "internalType": "uint256",
          "name": "",
          "type": "uint256"
        },
        {
          "internalType": "bytes",
          "name": "",
          "type": "bytes"
        }
      ],
      "name": "onERC721Received",
      "outputs": [
        {
          "internalType": "bytes4",
          "name": "",
          "type": "bytes4"
        }
      ],
      "stateMutability": "pure",
      "type": "function"
    },
    {
      "inputs": [],
      "name": "usdc",
      "outputs": [
        {
          "internalType": "contract IERC20",
          "name": "",
          "type": "address"
        }
      ],
      "stateMutability": "view",
      "type": "function"
    }
  ],
  "bytecode": "0x60c03461010357601f6134b338819003918201601f19168301916001600160401b038311848410176101075780849260409485528339810103126101035780516001600160a01b038116918282036101035760200151916001600160a01b038316908184036101035760017f9b779b17422d0df92223018b32b4d1fa46e071723d6817e2486d003becc55f0055159081156100fa575b506100eb5760805260a052604051613397908161011c82396080518181816102930152610801015260a0518181816102310152818161048f015281816104f201528181610647015281816106aa01526108990152f35b63d92e233d60e01b5f5260045ffd5b9050155f610095565b5f80fd5b634e487b7160e01b5f52604160045260245ffdfe6080806040526004361015610012575f80fd5b5f905f3560e01c908163134e18f41461088757508063150b7a02146108305780633e413bee146107ec57806348d06728146107bb578063a2cdb4db146100cc5763b3da4e3414610060575f80fd5b346100c95760203660031901126100c95760043567ffffffffffffffff81116100c757906100a66100a161009a60409436906004016108f4565b3691610993565b610aa2565b8152806020528160018060a01b039120541681519080151582526020820152f35b505b80fd5b50346107225760e03660031901126107225767ffffffffffffffff600435116107225760c0600435360360031901126107225767ffffffffffffffff6024351161072257608060243536036003190112610722576044359081151582036107225760643591821515830361072257608435916001600160a01b03831683036107225760a435916001600160a01b03831683036107225760c43567ffffffffffffffff8111610722576101829036906004016108f4565b91909560027f9b779b17422d0df92223018b32b4d1fa46e071723d6817e2486d003becc55f0054146107ac5760027f9b779b17422d0df92223018b32b4d1fa46e071723d6817e2486d003becc55f00556101e66100a161009a600480350180610922565b92835f525f60205260018060a01b0360405f2054168061076e575061022c95969760209160405197889283926379614c5f60e11b845285600485015260248401916109c9565b03815f7f00000000000000000000000000000000000000000000000000000000000000006001600160a01b03165af1948515610717575f9561073a575b5060405161271f8082019082821067ffffffffffffffff831117610726576040918391610c4383397f00000000000000000000000000000000000000000000000000000000000000006001600160a01b031681523060208201520301905ff0958615610717576001600160a01b0387163b156107225760405192631410b06f60e21b845260e0600485015261037161034a6103236103116004356004016004356004016109e9565b60c060e48a01526101a48901916109c9565b6103376024600435016004356004016109e9565b88830360e319016101048a0152906109c9565b61035e6044600435016004356004016109e9565b87830360e31901610124890152906109c9565b90606460043501356101448601526084600435013561016486015260a460043501359267ffffffffffffffff8416809403610722575f9461041c879594869561018487015260031986820301602487015260243560040135815260ff6103da6024803501610a1b565b16602082015260ff6103f0604460243501610a1b565b166040820152608061040c6064602435016024356004016109e9565b91909281606082015201916109c9565b9215156044850152151560648401526001600160a01b038b8116608485015290811660a484015260c4830189905291900390829084908a165af1801561071757610702575b50815260208190526040812080546001600160a01b0319166001600160a01b038516179055833b15610645577f00000000000000000000000000000000000000000000000000000000000000006001600160a01b03163b156100c9576040516323b872dd60e01b81523060048201526001600160a01b038516602482015260448101839052818180606481010381837f00000000000000000000000000000000000000000000000000000000000000006001600160a01b03165af1801561063a57610625575b5050806105bf6040945b7f46c5d2dc86cbec286d4b4694b31156791be7b5023953184f283e3a246c553816610560600480350180610922565b93906105a46105b261057c602460043501600435600401610922565b610590604460043501600435600401610922565b9490958e519a60a08c5260a08c01916109c9565b9189830360208b01526109c9565b918683038b8801526109c9565b600435606481013560608601526084013560808501526001600160a01b0392831693928716929081900390a460017f9b779b17422d0df92223018b32b4d1fa46e071723d6817e2486d003becc55f005582516001600160a01b0390921682526020820152f35b610630828092610955565b6100c95780610527565b6040513d84823e3d90fd5b7f00000000000000000000000000000000000000000000000000000000000000006001600160a01b03163b156100c957604051632142170760e11b81523060048201526001600160a01b038516602482015260448101839052818180606481010381837f00000000000000000000000000000000000000000000000000000000000000006001600160a01b03165af1801561063a576106ed575b5050806105bf604094610531565b6106f8828092610955565b6100c957806106df565b61070f9192505f90610955565b5f905f610461565b6040513d5f823e3d90fd5b5f80fd5b634e487b7160e01b5f52604160045260245ffd5b9094506020813d602011610766575b8161075660209383610955565b810103126107225751935f610269565b3d9150610749565b61077c600480350180610922565b90916107a260405193849363ad68e0a760e01b85526040600486015260448501916109c9565b9060248301520390fd5b633ee5aeb560e01b5f5260045ffd5b34610722576020366003190112610722576004355f525f602052602060018060a01b0360405f205416604051908152f35b34610722575f366003190112610722576040517f00000000000000000000000000000000000000000000000000000000000000006001600160a01b03168152602090f35b34610722576080366003190112610722576108496108c8565b506108526108de565b5060643567ffffffffffffffff8111610722576108739036906004016108f4565b5050604051630a85bd0160e11b8152602090f35b34610722575f366003190112610722577f00000000000000000000000000000000000000000000000000000000000000006001600160a01b03168152602090f35b600435906001600160a01b038216820361072257565b602435906001600160a01b038216820361072257565b9181601f840112156107225782359167ffffffffffffffff8311610722576020838186019501011161072257565b903590601e1981360301821215610722570180359067ffffffffffffffff82116107225760200191813603831361072257565b90601f8019910116810190811067ffffffffffffffff82111761072657604052565b67ffffffffffffffff811161072657601f01601f191660200190565b92919261099f82610977565b916109ad6040519384610955565b829481845281830111610722578281602093845f960137010152565b908060209392818452848401375f828201840152601f01601f1916010190565b9035601e198236030181121561072257016020813591019167ffffffffffffffff821161072257813603831361072257565b359060ff8216820361072257565b90610a3382610977565b610a406040519182610955565b8281528092610a51601f1991610977565b0190602036910137565b908151811015610a6c570160200190565b634e487b7160e01b5f52603260045260245ffd5b5f198114610a8e5760010190565b634e487b7160e01b5f52601160045260245ffd5b90815115610c0457610ab48251610a29565b5f906001935f5b8151811015610b9e57610ace8183610a5b565b5160f81c602081148015610b94575b8015610b8a575b8015610b80575b15610b2257508515610b02575b6001905b01610abb565b94506020610b19610b1285610a80565b9484610a5b565b53600194610af8565b93909550604184101580610b75575b610b63575b610b59610b4282610a80565b9460f81b6001600160f81b0319165f1a9184610a5b565b5360015f95610afc565b9260200160ff8111610a8e5792610b36565b50605a841115610b31565b50600d8114610aeb565b50600a8114610ae4565b5060098114610add565b505092508015801580610c20575b610c13575b508015610c0457610bc181610a29565b905f5b818110610bd957505080516020909101209150565b6001906001600160f81b0319610bef8288610a5b565b51165f1a610bfd8286610a5b565b5301610bc4565b632b25d88160e01b5f5260045ffd5b610a8e575f19015f610bb1565b505f198201828111610a8e57610c3860209186610a5b565b5160f81c14610bac56fe60c0346100fc57601f61271f38819003918201601f19168301916001600160401b038311848410176101005780849260409485528339810103126100fc5780516001600160a01b038116918282036100fc5760200151916001600160a01b038316908184036100fc5760017f9b779b17422d0df92223018b32b4d1fa46e071723d6817e2486d003becc55f0055159081156100f3575b506100e45760805260a05260405161260a908161011582396080518181816107f701528181610e1c015281816115ed015281816119960152611b80015260a051818181610acf01526110410152f35b63d92e233d60e01b5f5260045ffd5b9050155f610095565b5f80fd5b634e487b7160e01b5f52604160045260245ffdfe6080806040526004361015610012575f80fd5b5f905f3560e01c90816301e2557d14611cf5575080630db3993414611cd85780630f134cb414611c02578063162a0cf814611a925780631f5803f314611a0b578063313dab201461196b578063363c310114611931578063392f37e9146116415780633d141aa31461161c5780633e413bee146115d85780634f270496146115bb5780635042c1bc14610fa5578063564a565d14610f365780635915886914610edb578063617e31bd14610e9a5780636d0501f614610e725780638cd52c2a14610d2d5780639b22b92014610d10578063a7cd52cb14610cd3578063afcc502714610c7a578063b12527f814610bec578063b8a9f81914610b48578063ba5d307814610b20578063c2b6b10f14610afe578063c45a015514610aba578063d367986c14610a73578063dd44e6bc1461070f578063f4ea79341461017d5763f8014c761461015d575f80fd5b3461017a578060031936011261017a576020600654604051908152f35b80fd5b50346105a35760603660031901126105a357610197611d2e565b90602435916001600160401b0383116105a357608060031984360301126105a357604435906101c46120bd565b6007546001600160a01b03163303610700576001600160a01b03169283156106f15760ff600b5460081c16806106da575b6106cb5761020a61020f913690600401611e1c565b611f41565b9062015180420460ff600b54165f1461069a57805f52600a60205260405f20549261023a81856121b1565b60095490801561068c575b8115610677575b6102b9906040519261025f606085611ded565b600284526040918236602087013761027685612533565b5261028084612554565b5260208093604051906102938383611ded565b5f82525f368137604051631888debd60e01b815294859283926013600660048601612490565b03815f5f5160206125755f395f51905f525af1918215610598575f92610648575b506009549061035584898a159485610638575b801561062a575b60405191610303606084611ded565b6002835285368585013761031683612533565b5261032082612554565b526040519061032f8383611ded565b5f82525f368137604051631888debd60e01b815293849283926014600660048601612490565b03815f5f5160206125755f395f51905f525af19182156105985785915f936105f7575b5060095492936103f0938b9181156105e7575b6105d7575b6040519261039f606085611ded565b6002845236858501376103b183612533565b526103bb82612554565b52604051906103ca8383611ded565b5f82525f368137604051631888debd60e01b815293849283926007600660048601612490565b03815f5f5160206125755f395f51905f525af1908115610598575f916105a7575b5091600a9461042b6104319385610438965061042b6124c0565b9161228b565b80966121b1565b926104428461205a565b5f525260405f20555b6104548261205a565b5f5160206125755f395f51905f523b156105a357604051630828982760e01b815260048101839052306024820152935f85604481835f5160206125755f395f51905f525af194851561059857602095610583575b506105306104b7600e54611f33565b9384600e556003604051916104cb83611dd2565b8483528883019081526040808401878152606085018a8152898b52600f8c52918a20945185546001600160a01b039091166001600160a01b03199091161785559151600185015590516002840155519101805460ff191691151560ff16919091179055565b808452600d855260408420600160ff19825416179055827ff3d80c6e2eb55f2743ef7fd5cd8ff7ef8f42638c44c8afd11d1ee46e71cc6d996040519580a460015f5160206125b55f395f51905f52558152f35b6105909194505f90611ded565b5f925f6104a8565b6040513d5f823e3d90fd5b5f80fd5b9290508383813d83116105d0575b6105bf8183611ded565b810103126105a3579151600a610411565b503d6105b5565b90506105e16124c0565b90610390565b90506105f16124c0565b9061038b565b8281939294503d8311610623575b61060f8183611ded565b810103126105a357519084906103f0610378565b503d610605565b506106336124c0565b6102f4565b90506106426124c0565b906102ed565b9091508281813d8311610670575b6106608183611ded565b810103126105a35751905f6102da565b503d610656565b90506102b96106846124c0565b91905061024c565b506106956124c0565b610245565b6106b083825f52600a60205260405f20546121b1565b906106ba8261205a565b5f52600a60205260405f205561044b565b6339605d5d60e11b5f5260045ffd5b50835f52600c60205260ff60405f205416156101f5565b63073f8a5160e21b5f5260045ffd5b630789a70b60e41b5f5260045ffd5b346105a35760603660031901126105a357610728611d2e565b610730611d86565b90604435916001600160401b0383116105a357366023840112156105a3578260040135926001600160401b0384116105a35736602485830101116105a3576107766120bd565b90916001600160a01b0316908282156106f157825f52600d60205260ff60405f20541615610a64576007546001600160a01b031633141580610a5a575b61070057825f5260126020526001600160401b0360405f2054168015159081610a30575b50610a21576040516370a0823160e01b81523060048201526020816024817f00000000000000000000000000000000000000000000000000000000000000006001600160a01b03165afa908115610598575f916109ef575b506001600160801b038111156109e057506001600160801b03905b6001600160801b038083169116116109d8575b50610869601054611f33565b92836010556001600160401b034216916040519061088682611dd2565b8482526001600160801b03602083019316835260408201600181526001600160801b0360016060850194878652895f52601160205260405f2090828060a01b0390838060a01b03905116166001600160601b0360a01b825416178155019451166001600160801b0319855416178455519060038210156109c45760209787957f9b58afa035c5fa58f85c5a54b65bd3562d5aa7679e973bc1404fe25e8babab219560249560409582549060ff60801b9060801b169060ff60801b1916178255518154906001600160401b0360881b9060881b16906001600160401b0360881b1916179055875f5260128a52835f20906001600160401b03198254161790558083519485938b8552828c86015201848401375f828201840152601f01601f19168101030190a360015f5160206125b55f395f51905f5255604051908152f35b634e487b7160e01b5f52602160045260245ffd5b92508461085d565b6001600160801b03169061084a565b90506020813d602011610a19575b81610a0a60209383611ded565b810103126105a357518661082f565b3d91506109fd565b6345a571f360e01b5f5260045ffd5b90504203428111610a46576201518011866107d7565b634e487b7160e01b5f52601160045260245ffd5b50823314156107b3565b6389f5ad6160e01b5f5260045ffd5b346105a3575f3660031901126105a3576007546001600160a01b03163303610700576201518042045f52600a602052602060405f2054610ab281612176565b604051908152f35b346105a3575f3660031901126105a3576040517f00000000000000000000000000000000000000000000000000000000000000006001600160a01b03168152602090f35b346105a3575f3660031901126105a357602060ff600b54166040519015158152f35b346105a3575f3660031901126105a3576007546040516001600160a01b039091168152602090f35b346105a35760203660031901126105a357610b61611d2e565b6007546001600160a01b03169033829003610700576001600160a01b0316908115610bdd578114610bce57600854816001600160a01b0382167f8201e24b172acf17d7d7f406fcd0cba6f0462d209af9df4b0011fc932a29702e5f80a36001600160a01b03191617600855005b63067c248360e41b5f5260045ffd5b63d92e233d60e01b5f5260045ffd5b346105a35760403660031901126105a357610c05611d2e565b610c0d611d44565b6007549091906001600160a01b031633036107005760207f13518841ff4d3053cb7703afaa39b145c6331829b982d42f4d4fd7568b2e8e249160018060a01b031692835f52600c8252610c6f8160405f209060ff801983541691151516179055565b6040519015158152a2005b346105a35760203660031901126105a3576004355f52600f602052608060405f2060018060a01b038154169060018101549060ff6003600283015492015416916040519384526020840152604083015215156060820152f35b346105a35760203660031901126105a3576001600160a01b03610cf4611d2e565b165f52600c602052602060ff60405f2054166040519015158152f35b346105a3575f3660031901126105a3576020600e54604051908152f35b346105a35760603660031901126105a357600435610d49611d86565b90610d526120bd565b6008546001600160a01b03163303610e6357805f52601160205260405f206001810180549360ff8560801c1660038110156109c457600103610e54576001600160801b0380911694168411610e4557805460ff60801b1916600160811b1790557fee94b8bc89c645a1e6b8a9c93d89bed25166b8c4e2856957697a1cdf6421fd9a9060409084610e09575b54815194855260443560208601526001600160a01b031693a360015f5160206125b55f395f51905f5255005b8054610e409086906001600160a01b03167f00000000000000000000000000000000000000000000000000000000000000006120f5565b610ddd565b6312b718b560e11b5f5260045ffd5b635ddd2aed60e11b5f5260045ffd5b631d55f1bb60e01b5f5260045ffd5b346105a3575f3660031901126105a3576008546040516001600160a01b039091168152602090f35b346105a35760203660031901126105a3576001600160a01b03610ebb611d2e565b165f52601260205260206001600160401b0360405f205416604051908152f35b346105a3575f3660031901126105a3575f6020604051610efa81611db7565b82815201526040600b54815190610f1082611db7565b60ff6020818316151593848152019160081c161515815282519182525115156020820152f35b346105a35760203660031901126105a3576004355f52601160205260405f206001808060a01b038254169101549060ff8260801c166040519182526001600160801b038316602083015260038110156109c4576080926001600160401b0391604084015260881c166060820152f35b346105a35760e03660031901126105a3576004356001600160401b0381116105a3578060040160c060031983360301126105a357602435906001600160401b0382116105a357608060031983360301126105a357611001611d53565b606435918215158093036105a3576084356001600160a01b03811694908590036105a35760a4356001600160a01b03811696908790036105a35760c435927f00000000000000000000000000000000000000000000000000000000000000006001600160a01b031633036115ac5760135460ff811661159e5787158015611596575b610bdd57888814610bce5760ff19166001176013556110a28180611f01565b906001600160401b03821161139e5781906110bd5f54611ec9565b601f8111611525575b505f90601f83116001146114b4575f926114a9575b50508160011b915f199060031b1c1916175f555b6110fc6024830182611f01565b906001600160401b03821161139e57611116600154611ec9565b601f8111611446575b505f90601f83116001146113bd5761115a9392915f91836113b2575b50508160011b915f199060031b1c1916176001555b6044830190611f01565b906001600160401b03821161139e57611174600254611ec9565b601f811161133b575b505f90601f83116001146112b35760a49392915f91836112a8575b50508160011b915f199060031b1c1916176002555b606481013560035560848101356004550135926001600160401b0384168094036105a3577f10f27652c1015195ca7e6bc9b4c724cbf18e91c42117d92124703a3f49bb240f946020946001600160401b031960055416176005556001600160401b0342166001600160401b0319600554161760055561ff00600b549160081b169060ff831515169061ffff19161717600b555f146112975761125961020a611262923690600401611e1c565b8060095561205a565b836001600160601b0360a01b6007541617600755846001600160601b0360a01b600854161760085580600655604051908152a3005b506112a06124c0565b600955611262565b013590508a80611198565b60025f9081527f405787fa12a823e0f2b7631cc41b3ba8828b3321ca811111fa75cd3aa3bb5ace9290601f198516905b818110611323575091600193918560a49796941061130a575b505050811b016002556111ad565b01355f19600384901b60f8161c191690558a80806112fc565b919360206001819287870135815501950192016112e3565b60025f527f405787fa12a823e0f2b7631cc41b3ba8828b3321ca811111fa75cd3aa3bb5ace601f840160051c81019160208510611394575b601f0160051c01905b818110611389575061117d565b5f815560010161137c565b9091508190611373565b634e487b7160e01b5f52604160045260245ffd5b013590508b8061113b565b60015f9081527fb10e2d527612073b26eecdfd717e6a320cf44b4afac2b0732d9fcbe2b7fa0cf69290601f198516905b81811061142e575091600193918561115a97969410611415575b505050811b01600155611150565b01355f19600384901b60f8161c191690558b8080611407565b919360206001819287870135815501950192016113ed565b60015f527fb10e2d527612073b26eecdfd717e6a320cf44b4afac2b0732d9fcbe2b7fa0cf6601f840160051c8101916020851061149f575b601f0160051c01905b818110611494575061111f565b5f8155600101611487565b909150819061147e565b013590508a806110db565b909150601f198316915f80525f5160206125955f395f51905f52925f5b81811061150d57509084600195949392106114f4575b505050811b015f556110ef565b01355f19600384901b60f8161c191690558a80806114e7565b919360206001819287870135815501950192016114d1565b9091505f8052601f830160051c5f5160206125955f395f51905f52019060208410611581575b90601f8493920160051c5f5160206125955f395f51905f5201905b81811061157357506110c6565b5f8155849350600101611566565b5f5160206125955f395f51905f52915061154b565b508815611083565b62dc149f60e41b5f5260045ffd5b631966391b60e11b5f5260045ffd5b346105a3575f3660031901126105a3576020604051620151808152f35b346105a3575f3660031901126105a3576040517f00000000000000000000000000000000000000000000000000000000000000006001600160a01b03168152602090f35b346105a3575f3660031901126105a357602060ff600b5460081c166040519015158152f35b346105a3575f3660031901126105a3575f60a060405161166081611d9c565b606081526060602082015260606040820152826060820152826080820152015260405161168c81611d9c565b6040515f815f549161169d83611ec9565b808352926001811690811561191257506001146118c8575b6116c192500382611ded565b8152604051905f82600154916116d683611ec9565b80835292600181169081156118a9575060011461184a575b6116fa92500383611ded565b602081019182526040515f60025461171181611ec9565b808452906001811690811561182657506001146117cc575b5061178e93611742836001600160401b03930384611ded565b6040840192835260035492606085019384526117b460045491608087019283526117a185600554169460a08901958652604051998a9960208b525160c060208c015260e08b0190611d62565b9051898203601f190160408b0152611d62565b9051878203601f19016060890152611d62565b935160808601525160a0850152511660c08301520390f35b60025f90815291507f405787fa12a823e0f2b7631cc41b3ba8828b3321ca811111fa75cd3aa3bb5ace5b81831061180c575050810160200161178e611729565b6001816020929493945483858801015201910191906117f6565b60ff191660208581019190915291151560051b8401909101915061178e9050611729565b5060015f90815290917fb10e2d527612073b26eecdfd717e6a320cf44b4afac2b0732d9fcbe2b7fa0cf65b81831061188d5750509060206116fa928201016116ee565b6020919350806001915483858901015201910190918492611875565b602092506116fa94915060ff191682840152151560051b8201016116ee565b505f80805290915f5160206125955f395f51905f525b8183106118f65750509060206116c1928201016116b5565b60209193508060019154838588010152019101909183926118de565b602092506116c194915060ff191682840152151560051b8201016116b5565b346105a3575f3660031901126105a3576007546001600160a01b031633036107005761195e600954612176565b6020600954604051908152f35b346105a3575f3660031901126105a3576040516370a0823160e01b81523060048201526020816024817f00000000000000000000000000000000000000000000000000000000000000006001600160a01b03165afa8015610598575f906119d8575b602090604051908152f35b506020813d602011611a03575b816119f260209383611ded565b810103126105a357602090516119cd565b3d91506119e5565b346105a35760203660031901126105a357611a24611d2e565b6007546001600160a01b0381169133839003610700576001600160a01b0316918215610bdd576008546001600160a01b03168314610bce5782907f5dfd46638a1a40be52c09f35809cae47a9a93d353cc9eb99eb2794afd4ca44fa5f80a36001600160a01b03191617600755005b346105a35760203660031901126105a357611aab6120bd565b6004355f908152600f6020526040902080546001600160a01b03168015611bf3576003820180549060ff8216611be45760018401546040519063f6bc7f3f60e01b825260048201526020816024815f5160206125755f395f51905f525afa908115610598575f91611bab575b5060ff1990921660011790556001600160801b031680611b7a575b82546002840154906001600160a01b03167fd42fb6425eb0ac9dd276a765b4930e50cc156019950d543c5258f763821b6b555f80a360015f5160206125b55f395f51905f5255005b611ba4917f00000000000000000000000000000000000000000000000000000000000000006120f5565b8180611b32565b90506020813d602011611bdc575b81611bc660209383611ded565b810103126105a357516001600160801b03611b17565b3d9150611bb9565b633c131f9560e21b5f5260045ffd5b63befcc57b60e01b5f5260045ffd5b346105a35760603660031901126105a3576004356001600160401b0381116105a357608060031982360301126105a357611c3a611d44565b90611c43611d53565b6007549092906001600160a01b03163303610700577f683c502470d2be8e8a50da711eb842ba4c85ca071a9deae90449865393d5fe299260409282151592600b549215159261ff008460081b169060ff86169061ffff19161717600b555f14611cc75761125961020a611cba923690600401611e1c565b82519182526020820152a1005b50611cd06124c0565b600955611cba565b346105a3575f3660031901126105a3576020601054604051908152f35b346105a35760203660031901126105a3576020906001600160a01b03611d19611d2e565b165f52600d825260ff60405f20541615158152f35b600435906001600160a01b03821682036105a357565b6024359081151582036105a357565b6044359081151582036105a357565b805180835260209291819084018484015e5f828201840152601f01601f1916010190565b602435906001600160801b03821682036105a357565b60c081019081106001600160401b0382111761139e57604052565b604081019081106001600160401b0382111761139e57604052565b608081019081106001600160401b0382111761139e57604052565b90601f801991011681019081106001600160401b0382111761139e57604052565b359060ff821682036105a357565b91906080838203126105a357604051611e3481611dd2565b809380358252611e4660208201611e0e565b6020830152611e5760408201611e0e565b60408301526060810135906001600160401b0382116105a357019082601f830112156105a35781356001600160401b03811161139e5760405193611ea5601f8301601f191660200186611ded565b818552602082850101116105a3576020815f92826060960183880137850101520152565b90600182811c92168015611ef7575b6020831014611ee357565b634e487b7160e01b5f52602260045260245ffd5b91607f1691611ed8565b903590601e19813603018212156105a357018035906001600160401b0382116105a3576020019181360383136105a357565b5f198114610a465760010190565b60ff604082015116600681036120435750602060ff91606080604051611f6681611dd2565b5f81525f858201525f604082015201528051611fea606085858501511693015160405192611f9384611dd2565b83528483019384528560408401600681526060850192835260405197889687966313fce3b160e11b885260406004890152516044880152511660648601525116608484015251608060a484015260c4830190611d62565b33602483015203815f5f5160206125755f395f51905f525af1908115610598575f91612014575090565b90506020813d60201161203b575b8161202f60209383611ded565b810103126105a3575190565b3d9150612022565b6367cf307160e01b5f52600452600660245260445ffd5b5f5160206125755f395f51905f523b156105a357604051631974142760e21b815260048101919091523060248201525f8180604481015b0381835f5160206125755f395f51905f525af18015610598576120b15750565b5f6120bb91611ded565b565b60025f5160206125b55f395f51905f5254146120e65760025f5160206125b55f395f51905f5255565b633ee5aeb560e01b5f5260045ffd5b916040519163a9059cbb60e01b5f5260018060a01b031660045260245260205f60448180865af19060015f5114821615612155575b604052156121355750565b635274afe760e01b5f9081526001600160a01b0391909116600452602490fd5b90600181151661216d57823b15153d1516169061212a565b503d5f823e3d90fd5b5f5160206125755f395f51905f523b156105a357604051631974142760e21b815260048101919091523360248201525f818060448101612091565b90811561227b575b801561226d575b604051916121cf606084611ded565b6002835260403660208501376121e483612533565b526121ee82612554565b5261222a60208092604051906122048383611ded565b5f82525f368137604051631888debd60e01b815293849283926008600660048601612490565b03815f5f5160206125755f395f51905f525af1918215610598575f9261224f57505090565b90809250813d8311612266575b61202f8183611ded565b503d61225c565b506122766124c0565b6121c0565b90506122856124c0565b906121b9565b9190821561235b575b801561234d575b811561233d575b604051926122b1608085611ded565b6003845260603660208601376122c684612533565b526122d083612554565b526122da82612564565b526020908161232b604051926122f08385611ded565b5f84525f36813761222a6040519485938493631888debd60e01b85526006600486015260046024860152608060448601526084850190612425565b83810360031901606485015290612425565b90506123476124c0565b906122a2565b506123566124c0565b61229b565b915060206123ce816040516123708282611ded565b5f81525f36813760405190612386608083611ded565b60038252606036848401375f61239b83612533565b525f6123a683612554565b525f6123b183612564565b52604051631888debd60e01b815293849283925f60048501612458565b03815f5f5160206125755f395f51905f525af1918215610598575f926123f7575b505091612294565b90809250813d831161241e575b61240e8183611ded565b810103126105a357515f806123ef565b503d612404565b90602080835192838152019201905f5b8181106124425750505090565b8251845260209384019390920191600101612435565b9161247f9060ff61248d9593168452601a6020850152608060408501526080840190612425565b916060818403910152612425565b90565b9293919060ff16835260208110156109c45761248d9361247f916020850152608060408501526080840190612425565b602061222a816040516124d38282611ded565b5f81525f368137604051906124e9608083611ded565b60038252606036848401375f6124fe83612533565b52600661250a83612554565b525f61251583612564565b52604051631888debd60e01b81529384928392600660048501612458565b8051156125405760200190565b634e487b7160e01b5f52603260045260245ffd5b8051600110156125405760400190565b805160021015612540576060019056fe000000000000000000000000ea30c4b8b44078bbf8a6ef5b9f1ec1626c7848d9290decd9548b62a8d60345a988386fc84ba6bc95484008f6362f93160ef3e5639b779b17422d0df92223018b32b4d1fa46e071723d6817e2486d003becc55f00a26469706673582212203b39f4f8061aaa2ae846dbde43f76cc3056d841aa5610bd717ca6b484be2335164736f6c634300081c0033a2646970667358221220f57318befd2801a08043034eb1907523683ac4f675a83621236516af2d08604464736f6c634300081c0033",
  "linkReferences": {},
  "deployedLinkReferences": {}
}